:0605460012036E0204AF77
:10036E0030820E30810B308308D291D292D293D24A
:10037E009420820E20810B208308D291C292D293B8
:10038E00C29420820E20810B308308D291C292C279
:10039E0093D29420822430812130831ED291C29236
:1003AE00D293C2947F827E00120511D291C292C264
:1003BE0093D2947F2C7E0112051130820E20810B78
:1003CE00208308C291D292D293C29430822430817B
:1003DE002120831ED291C292D293C2947F827E003C
:1003EE00120511C291D292D293C2947F2C7E011229
:1003FE00051120820E30810B208308D291C292D239
:10040E0093C29430820E20810B308308D291C29217
:05041E00D293C29422FC
:09053400C291C292C293C294224A
:09053D00D291C292D293C2942221
:040552000208001487
:0D052600007F087E017DF3DDFEDEFCDFFAC4
:0105330022A5
:05054C00007F06DFFE48
:010551002287
:1004AF00758911E4F58BF58DD2A112054CC2A130DF
:1004BF00A2FDD28E20A2FDC28EAF8DEFFEAD8B7C42
:1004CF0000E42DFDEC3EFCE41202A67B967A437904
:1004DF000B783D1200FBE4FBFAF97840120204E4BA
:1004EF00FBFA7980783F12000A1202DF8E0A8F0B17
:1004FF00D3E509950BE508950A4006120534120558
:02050F002622A2
:10051100EF1FAC0670011E4C600A7D027CEFDCFE11
:04052100DDFC80EC91
:0105250022B3
:1000030002034BE86480F8E933E83360110460F0DD
:10001300ED33EC337009E8FCE9FDEAFEEBFF220463
:1000230060DED3EB9FEA9EE99DE8C2E78CF0C2F75E
:1000330095F0400CE8CCF8E9CDF9EACEFAEBCFFB2A
:1000430012031685D0F05804700320D5B3E804706A
:10005300075002B2D502035592D5EC0460F7E4CC05
:10006300C0E0C398F8603B94186008400DD0E0FBF3
:1000730002032DE4FBFAC9FC8028E830E406E4C956
:10008300FBE4CAFCE830E305E4C9CACBFCE8540747
:100093006010F8C3E913F9EA13FAEB13FBEC13FC52
:1000A300D8F130F52FC3E49CFCEF9BFFEE9AFEEDF5
:1000B30099FDD0E0FBEF4E4D4C701222DB0302039F
:1000C30052EC2CFCEF33FFEE33FEED33FDED30E766
:1000D300EB02032DEF2BFFEE3AFEED39FDD0E0FBF3
:1000E30050130BBB0003020355ED13FDEE13FEEF9C
:0800F30013FFEC13FC02032DC6
:1000FB00EC4D6011E8497017ED33EC3304600DE4FF
:10010B00FCFFFEFD22E933E8330470F802034B12C7
:10011B00031658046009E4CC2481500628500902C8
:10012B000355284003020352C0E0EB4A7044B980E8
:10013B0006D0E0FB020341EF4E701CBD8008EBFFC5
:10014B00EAFEE9FD80EBE98DF0A4FEE5F00201E4A7
:10015B00E9CDF9EAFEEBFFEF89F0A4FCE5F0CE89DF
:10016B00F0A42EFFE435F0CD89F0A42DFEE435F09C
:10017B008067EF4E7005BD80D780C3EF8BF0A4ACCA
:10018B00F0EE8BF0A42CFCE435F0F8EF8AF0A42C05
:10019B00E5F038FCE433CB8DF0A42CFCE5F03BF818
:1001AB00EE8AF0A42CFCE5F038F8E433CF89F0A408
:1001BB002CFCE5F038CF3400CE89F0A42FFFE5F00E
:1001CB003EFEE433C98DF0A42EFEE5F039CD8AF066
:1001DB00A42FFFE5F03EFEE43DFD33D0E0FB5007DE
:1001EB000BBB000F020355EC2CFCEF33FFEE33FE81
:0601FB00ED33FD02032DAF
:10020100020355EC5D046005E85904700302034BD9
:10021100120316580460F6EC4860F2EC7004FDFE1F
:10022100FF22C860DB2481C85009C39860025006D0
:100231000203529850CAF582E9294B4A7005AB82F4
:1002410002034175F0007C1A7880C3EF9BEE9AEDB2
:1002510099400DC3EF9BFFEE9AFEED99FDE842F048
:10026100DC23ACF0D0E0FFD0E0FED0E0FDAB82209B
:10027100E7101BEB60BAEC2CFCEF33FFEE33FEED25
:1002810033FD02032DE803F830E705C0F075F000F7
:10029100EF2FFFEE33FEED33FD40B830E7C280AA09
:1002A10075F020800E75F010800575F0087D007ED8
:1002B100007F003392D530D503120360EC33401038
:1002C100EF33FFEE33FEED33FDEC33FCD5F0ED22E1
:0E02D100E5F0247EA2D513CC92E7CDCEFF221D
:1002DF00EDD2E7CD33EC3392D524814006E4FFFE17
:1002EF00FDFC22FCE4CFCECDCC24E0501174FF8076
:1002FF00EDC3CC13CCCD13CDCE13CECF13CF047013
:07030F00F030D5DE020360AF
:10031600E9D2E7C933E833F892D5EDD2E7CD33EC2D
:0703260033FC5002B2D522A6
:10032D00EC30E7100FBF000C0EBE00080DBD000431
:10033D000BEB6014A2D5EB13FCED92E7FD2274FFDD
:10034D00FCFDFEFF22E480F8A2D574FF13FC7D8036
:03035D00E480EF4A
:03000000020423D4
:0C042300787FE4F6D8FD75810B02046AB6
:0E036000C3E49FFFE49EFEE49DFDE49CFC22AE
:10042F00020546E493A3F8E493A34003F68001F298
:10043F0008DFF48029E493A3F85407240CC8C333CE
:10044F00C4540F4420C8834004F456800146F6DF9D
:10045F00E4800B0102040810204080900552E47ED6
:10046F00019360BCA3FF543F30E509541FFEE49392
:10047F00A360010ECF54C025E060A840B8E493A359
:10048F00FAE493A3F8E493A3C8C582C8CAC583CA84
:10049F00F0A3C8C582C8CAC583CADFE9DEE780BE3C
:0105560000A4
:00000001FF
