:10054E004D656E753A0061707031006170703200E9
:07055E0061707033003E00E4
:100489007BFF7A05794E7D017F011204F07BFF7AAB
:100499000579547D027F021204F07BFF7A057959B0
:1004A9007D077F021204F07BFF7A05795E7D0C7F60
:0404B900020204F047
:0F05A400E51904FD7BFF7A0579637F020204F0FD
:100268001205901204891205A41202D08F18E518FD
:10027800B4021012059074052519F51975F00F844C
:1002880085F019E518B4011012059074FB2519F5CD
:100298001975F0F18485F019E518B40409E51570AD
:1002A80005751501F516E518B4030BE515B4010637
:1002B800E4F5151205A4E5151460080470A51204E8
:0802C8008980A01205A4809BAF
:1002D000E4F52D20B1137F14FE12057B30B1FD7FB4
:1002E000147E0012057B752D0120B0147F147E0052
:1002F00012057B30B0FD7F147E0012057B752D0248
:1003000020B2147F147E0012057B30B2FD7F147E74
:100310000012057B752D0320B3147F147E00120597
:100320007B30B3FD7F147E0012057B752D04AF2D4D
:0103300022AA
:0605B300C2A58F80D2A753
:0805B9007F027EEFDEFEDFFC95
:0105C1002217
:0A05C200C2A61205B3C2A70205B9D4
:10051300CFCDCFCECCCE1201027C007D0A120102D8
:04052300ED2430FF94
:0A052700D2A61205B3C2A70205B95F
:10056500AE07BE0104ED148006BE0209ED243F442A
:0605750080FF1205C22206
:100590007F381205C27F0C1205C27F061205C27F8A
:0405A000010205C28D
:0A05CC00AC03120565AF0402052719
:0604F0008B2D8A2E892FDE
:1004F600120565E4FDAB2DAA2EA92F8D827583000A
:0C0506001200C3FF60061205270D80E9FB
:0105120022C6
:0C04BD007F0AEA24FFFDE434FFFC7E000F
:0804C9008E298F2A8C2B8D2C4B
:1004D1007F017E00E4FBEBC3952CE52B6480F8746F
:0E04E1008098500AAC29AD2A1200F00B80E87A
:0104EF0022EA
:040531008A1C8B1D78
:10053500120565AA1EEAD39400400D1204BDAC1C39
:08054500AD1D1205131A80ED33
:01054D00228B
:1003DE00120565C3EA64809480400B7F2B120527BB
:1003EE008A0D8B0E800E7F2D120527C3E49BF50E12
:1003FE00E49AF50DAA0CEAD39400400D1204BDAC9C
:09040E000DAD0E1205131A80ED6C
:0104170022C2
:040418008A218B2288
:10041C00120565AA23EAD3940040297F101204BF69
:10042C00AC21AD22CFCDCFCECCCE120102EF540FEA
:10043C00FEC3940AEE5004243080022437FF1205C8
:04044C00271A80D11A
:010450002289
:040451008A268B2745
:10045500120565AA28EAD394004028EA24FFFDE4A2
:1004650034FFFC7F027E001204C9AC26AD27CFCD38
:10047500CFCECCCE120102EF54012430FF12052756
:030485001A80D208
:010488002251
:10057B00EF1FAC0670011E4C600A7D027CEFDCFEA7
:04058B00DDFC80EC27
:01058F002249
:0805D600060F160601150F3295
:0505DF00C2B6C2B52206
:0603310025F0FDEC3EFC8E
:060337008C308D31AB0794
:10033D00D2B5E4FD74017E00A805088005C333CE57
:10034D0033CED8F9FFEBF582EF558224FF92B4D26C
:10035D00B6C2B60DBD08DDE4FD74017E00A805082A
:10036D008005C333CE33CED8F9FFE5305EFEE531DF
:10037D005F4E24FF92B4D2B6C2B60DBD08DBC2B536
:01038D00224D
:04038E00AB07AA0609
:10039200E4F9430301D2B5FD74017E00A80508808B
:1003A20005C333CE33CED8F9FFEE5AFEEF5B4E24AF
:1003B200FF92B4C2B6D2B60DBD08DDE4FDD2B6C21C
:1003C200B630B40D7401A805088002C333D8FC42CC
:0B03D200010DBD08E8C2B5C2B4AF01C8
:0103DD0022FD
:10000300E4FDFC7F8E120337E50F75F00A8475F06B
:1000130010A4FFAEF0E50F75F00A84EF7F8C120396
:1000230031E51075F00A8475F010A4FFAEF0E51009
:1000330075F00A847C00EF7F88120331E51175F0B7
:100043000A8475F010A4FFAEF0E51175F00A847C04
:1000530000EF25F0FDEC3EFC7F86120337E51275B9
:10006300F00A8475F010A4FFAEF0E51275F00A846F
:100073007C00EF25F0FDEC3EFC7F84120337E51393
:1000830075F00A8475F010A4FFAEF0E51375F00A5D
:10009300847C00EF25F0FDEC3EFC7F82120337E504
:1000A3001475F00A8475F010A4FFAEF0E51475F032
:1000B3000A847C00EF25F0FDEC3EFC7F80020337D1
:1001E3007F8C7E0012038EEFC4540F75F00AA4FEB9
:1001F300EF540F2EF50F7F887E0012038EEFC45449
:100203000F75F00AA4FEEF540F2EF5107F867E00C3
:1002130012038EEFC4540F75F00AA4FEEF540F2E91
:10022300F5117F847E0012038EEFC4540F75F00A1C
:10023300A4FEEF540F2EF5127F827E0012038EEF81
:10024300C4540F75F00AA4FEEF540F2EF5137F80EC
:100253007E0012038EEFC4540F75F00AA4FEEF5410
:040263000F2EF51451
:010267002274
:03000000020157A3
:0C015700787FE4F6D8FD75813102019E2E
:1000C300BB010CE58229F582E5833AF583E02250F2
:1000D30006E92582F8E622BBFE06E92582F8E2223C
:0D00E300E58229F582E5833AF583E4932256
:1000F000EF8DF0A4A8F0CF8CF0A428CE8DF0A42E24
:02010000FE22DD
:10010200BC000BBE0029EF8DF084FFADF022E4CCE1
:10011200F875F008EF2FFFEE33FEEC33FCEE9DECAA
:10012200984005FCEE9DFE0FD5F0E9E4CEFD22EDF0
:10013200F8F5F0EE8420D21CFEADF075F008EF2F3A
:10014200FFED33FD4007985006D5F0F222C398FD2B
:050152000FD5F0EA22C8
:10016300020268E493A3F8E493A34003F68001F248
:1001730008DFF48029E493A3F85407240CC8C3339D
:10018300C4540F4420C8834004F456800146F6DF6C
:10019300E4800B01020408102040809005D6E47E21
:1001A300019360BCA3FF543F30E509541FFEE49361
:1001B300A360010ECF54C025E060A840B8E493A328
:1001C300FAE493A3F8E493A3C8C582C8CAC583CA53
:1001D300F0A3C8C582C8CAC583CADFE9DEE780BE0B
:0105DE00001C
:00000001FF
