:0E058C001205641205781205F912041580FBA1
:05060200D291C292221A
:05060700C291D2922215
:05060C00D291D2922200
:05061100D293C2942207
:05061600C293D2942202
:05061B00D293D29422ED
:10056400758911758AA4758CFFC28DD28CD2A9D2DB
:04057400AFD2B92227
:03000B000204DB11
:1004DB00C0E0C0D0758AA4758CFF0515C3E51594D3
:1004EB0064748094804003751500E515C395145012
:1004FB0006D295D2968004C295C296D0D0D0E03267
:09000E0075145A120602020611D3
:0905A80075145A1206070206162A
:0905B100E4F51412061B02060C0D
:0905BA0075141012061102060C62
:0905C30075141012060202061B59
:0905CC0075141012061602060C4B
:0905D50075141012060702061B42
:0905DE0075145A120602020616F9
:0905E70075145A120607020611F0
:04062000020F0014B1
:0805F0007FB47E49DEFEDFFC52
:0105F80022E0
:0D059A00007F037ECE7D2BDDFEDEFCDFFA50
:0105A7002231
:10057800758911758B33758DFEC28FD28ED2ABD231
:04058800AFD2BB2211
:03001B00020538A3
:10053800C0E0C0D0758B33758DFE0511C3E51194ED
:1005480028748094804003751100E511C3950E50FE
:0C05580004D2A08002C2A0D0D0D0E032BB
:05000300007F06DFFE96
:0100080022D5
:10048500E4F5C9F5C8F5CCF5CDF5CAF5CBD2A11281
:100495000003C2A130A2FDD2CA20A2FDC2CAAFCDBF
:1004A500EFFEADCC7C00E42DFDEC3EFCE41202C178
:1004B5007B967A43790B783D120116E4FBFAF978BD
:1004C5004012021FE4FBFA7980783F1200251202E0
:0604D500FA8E128F1322C3
:0905F900E4F511750E0302059AE8
:10050B00E4F511750E0212059A1204858512088501
:10051B001309E4F511750E0412059AF511750E0306
:0D052B0012059A12048585120A85130B2211
:1004150012000E12048585120C85130DC3E50D958A
:1004250010E50C950F50551205B112059A12050BE2
:10043500C3E509950BE508950A500F1205E7120566
:100445009A1205B11205F012000EC3E50B9509E5E8
:100455000A9508500F1205DE12059A1205B112050C
:10046500F012000EE50BB50916E50AB508111205DF
:10047500A812059A1205DE12059A800012000E22B6
:10001E00020366E86480F8E933E83360110460F0A7
:10002E00ED33EC337009E8FCE9FDEAFEEBFF220448
:10003E0060DED3EB9FEA9EE99DE8C2E78CF0C2F743
:10004E0095F0400CE8CCF8E9CDF9EACEFAEBCFFB0F
:10005E0012033185D0F05804700320D5B3E8047034
:10006E00075002B2D502037092D5EC0460F7E4CCCF
:10007E00C0E0C398F8603B94186008400DD0E0FBD8
:10008E00020348E4FBFAC9FC8028E830E406E4C920
:10009E00FBE4CAFCE830E305E4C9CACBFCE854072C
:1000AE006010F8C3E913F9EA13FAEB13FBEC13FC37
:1000BE00D8F130F52FC3E49CFCEF9BFFEE9AFEEDDA
:1000CE0099FDD0E0FBEF4E4D4C701222DB03020384
:1000DE006DEC2CFCEF33FFEE33FEED33FDED30E730
:1000EE00EB020348EF2BFFEE3AFEED39FDD0E0FBBD
:1000FE0050130BBB0003020370ED13FDEE13FEEF66
:08010E0013FFEC13FC0203488F
:10011600EC4D6011E8497017ED33EC3304600DE4E3
:10012600FCFFFEFD22E933E8330470F80203661291
:10013600033158046009E4CC248150062850090292
:10014600037028400302036DC0E0EB4A7044B98097
:1001560006D0E0FB02035CEF4E701CBD8008EBFF8F
:10016600EAFEE9FD80EBE98DF0A4FEE5F00201FF71
:10017600E9CDF9EAFEEBFFEF89F0A4FCE5F0CE89C4
:10018600F0A42EFFE435F0CD89F0A42DFEE435F081
:100196008067EF4E7005BD80D780C3EF8BF0A4ACAF
:1001A600F0EE8BF0A42CFCE435F0F8EF8AF0A42CEA
:1001B600E5F038FCE433CB8DF0A42CFCE5F03BF8FD
:1001C600EE8AF0A42CFCE5F038F8E433CF89F0A4ED
:1001D6002CFCE5F038CF3400CE89F0A42FFFE5F0F3
:1001E6003EFEE433C98DF0A42EFEE5F039CD8AF04B
:1001F600A42FFFE5F03EFEE43DFD33D0E0FB5007C3
:100206000BBB000F020370EC2CFCEF33FFEE33FE4A
:06021600ED33FD02034878
:10021C00020370EC5D046005E85904700302036688
:10022C00120331580460F6EC4860F2EC7004FDFEE9
:10023C00FF22C860DB2481C85009C39860025006B5
:10024C0002036D9850CAF582E9294B4A7005AB82BE
:10025C0002035C75F0007C1A7880C3EF9BEE9AED7C
:10026C0099400DC3EF9BFFEE9AFEED99FDE842F02D
:10027C00DC23ACF0D0E0FFD0E0FED0E0FDAB822080
:10028C00E7101BEB60BAEC2CFCEF33FFEE33FEED0A
:10029C0033FD020348E803F830E705C0F075F000C1
:1002AC00EF2FFFEE33FEED33FD40B830E7C280AAEE
:1002BC0075F020800E75F010800575F0087D007EBD
:1002CC00007F003392D530D50312037BEC33401002
:1002DC00EF33FFEE33FEED33FDEC33FCD5F0ED22C6
:0E02EC00E5F0247EA2D513CC92E7CDCEFF2202
:1002FA00EDD2E7CD33EC3392D524814006E4FFFEFC
:10030A00FDFC22FCE4CFCECDCC24E0501174FF805A
:10031A00EDC3CC13CCCD13CDCE13CECF13CF0470F7
:07032A00F030D5DE02037B79
:10033100E9D2E7C933E833F892D5EDD2E7CD33EC12
:0703410033FC5002B2D5228B
:10034800EC30E7100FBF000C0EBE00080DBD000416
:100358000BEB6014A2D5EB13FCED92E7FD2274FFC2
:10036800FCFDFEFF22E480F8A2D574FF13FC7D801B
:03037800E480EF2F
:030000000203896F
:0C038900787FE4F6D8FD7581150203D0E2
:0E037B00C3E49FFFE49EFEE49DFDE49CFC2293
:1003950002058CE493A3F8E493A34003F68001F2ED
:1003A50008DFF48029E493A3F85407240CC8C33369
:1003B500C4540F4420C8834004F456800146F6DF38
:1003C500E4800B0102040810204080900620E47EA2
:1003D500019360BCA3FF543F30E509541FFEE4932D
:1003E500A360010ECF54C025E060A840B8E493A3F4
:1003F500FAE493A3F8E493A3C8C582C8CAC583CA1F
:10040500F0A3C8C582C8CAC583CADFE9DEE780BED6
:0106240000D5
:00000001FF
