:0305850002036E00
:10036E0030820E30810B308308D291C292D293C26A
:10037E009420820E20810B208308D291C292D293B8
:10038E00C29420820E20810B308308C291C292D279
:10039E0093C29420823E30813B308338D291C292F8
:1003AE00D293C2947F2C7E01120545308215308186
:1003BE001230830FC291C292D293C2947FB67E0343
:1003CE0012054520820E30810B208308D291C292F5
:1003DE00D293C29430820E20810B208308D291C218
:1003EE0092C293C29430823E30813B208338D291A8
:1003FE00C292D293C2947F2C7E0112054530821593
:10040E0030811230830FD291C292C293C2947FB6C2
:10041E007E0312054520820E30810B208308D29177
:10042E00C292D293C29420820E30810B208308D2C6
:10043E0091C292D293C29430820E20810B308308E7
:09044E00D291C292D293C2942211
:09056800C291C292C293C2942216
:09057100D291C292D293C29422ED
:040580000208001459
:0D055A00007F087E017DF3DDFEDEFCDFFA90
:010567002271
:05057A00007F06DFFE1A
:01057F002259
:1004E300758911E4F58BF58DD2A112057AC2A1307D
:1004F300A2FDD28E20A2FDC28EAF8DEFFEAD8B7C0E
:1005030000E42DFDEC3EFCE41202A67B967A4379CF
:100513000B783D1200FBE4FBFAF97840120204E485
:10052300FBFA7980783F12000A1202DF8E0A8F0BE2
:10053300D3E509950BE508950A40061205681205EF
:020543005A223A
:10054500EF1FAC0670011E4C600A7D027CEFDCFEDD
:04055500DDFC80EC5D
:01055900227F
:1000030002034BE86480F8E933E83360110460F0DD
:10001300ED33EC337009E8FCE9FDEAFEEBFF220463
:1000230060DED3EB9FEA9EE99DE8C2E78CF0C2F75E
:1000330095F0400CE8CCF8E9CDF9EACEFAEBCFFB2A
:1000430012031685D0F05804700320D5B3E804706A
:10005300075002B2D502035592D5EC0460F7E4CC05
:10006300C0E0C398F8603B94186008400DD0E0FBF3
:1000730002032DE4FBFAC9FC8028E830E406E4C956
:10008300FBE4CAFCE830E305E4C9CACBFCE8540747
:100093006010F8C3E913F9EA13FAEB13FBEC13FC52
:1000A300D8F130F52FC3E49CFCEF9BFFEE9AFEEDF5
:1000B30099FDD0E0FBEF4E4D4C701222DB0302039F
:1000C30052EC2CFCEF33FFEE33FEED33FDED30E766
:1000D300EB02032DEF2BFFEE3AFEED39FDD0E0FBF3
:1000E30050130BBB0003020355ED13FDEE13FEEF9C
:0800F30013FFEC13FC02032DC6
:1000FB00EC4D6011E8497017ED33EC3304600DE4FF
:10010B00FCFFFEFD22E933E8330470F802034B12C7
:10011B00031658046009E4CC2481500628500902C8
:10012B000355284003020352C0E0EB4A7044B980E8
:10013B0006D0E0FB020341EF4E701CBD8008EBFFC5
:10014B00EAFEE9FD80EBE98DF0A4FEE5F00201E4A7
:10015B00E9CDF9EAFEEBFFEF89F0A4FCE5F0CE89DF
:10016B00F0A42EFFE435F0CD89F0A42DFEE435F09C
:10017B008067EF4E7005BD80D780C3EF8BF0A4ACCA
:10018B00F0EE8BF0A42CFCE435F0F8EF8AF0A42C05
:10019B00E5F038FCE433CB8DF0A42CFCE5F03BF818
:1001AB00EE8AF0A42CFCE5F038F8E433CF89F0A408
:1001BB002CFCE5F038CF3400CE89F0A42FFFE5F00E
:1001CB003EFEE433C98DF0A42EFEE5F039CD8AF066
:1001DB00A42FFFE5F03EFEE43DFD33D0E0FB5007DE
:1001EB000BBB000F020355EC2CFCEF33FFEE33FE81
:0601FB00ED33FD02032DAF
:10020100020355EC5D046005E85904700302034BD9
:10021100120316580460F6EC4860F2EC7004FDFE1F
:10022100FF22C860DB2481C85009C39860025006D0
:100231000203529850CAF582E9294B4A7005AB82F4
:1002410002034175F0007C1A7880C3EF9BEE9AEDB2
:1002510099400DC3EF9BFFEE9AFEED99FDE842F048
:10026100DC23ACF0D0E0FFD0E0FED0E0FDAB82209B
:10027100E7101BEB60BAEC2CFCEF33FFEE33FEED25
:1002810033FD02032DE803F830E705C0F075F000F7
:10029100EF2FFFEE33FEED33FD40B830E7C280AA09
:1002A10075F020800E75F010800575F0087D007ED8
:1002B100007F003392D530D503120360EC33401038
:1002C100EF33FFEE33FEED33FDEC33FCD5F0ED22E1
:0E02D100E5F0247EA2D513CC92E7CDCEFF221D
:1002DF00EDD2E7CD33EC3392D524814006E4FFFE17
:1002EF00FDFC22FCE4CFCECDCC24E0501174FF8076
:1002FF00EDC3CC13CCCD13CDCE13CECF13CF047013
:07030F00F030D5DE020360AF
:10031600E9D2E7C933E833F892D5EDD2E7CD33EC2D
:0703260033FC5002B2D522A6
:10032D00EC30E7100FBF000C0EBE00080DBD000431
:10033D000BEB6014A2D5EB13FCED92E7FD2274FFDD
:10034D00FCFDFEFF22E480F8A2D574FF13FC7D8036
:03035D00E480EF4A
:03000000020457A0
:0C045700787FE4F6D8FD75810B02049E4E
:0E036000C3E49FFFE49EFEE49DFDE49CFC22AE
:10046300020585E493A3F8E493A34003F68001F225
:1004730008DFF48029E493A3F85407240CC8C3339A
:10048300C4540F4420C8834004F456800146F6DF69
:10049300E4800B0102040810204080900580E47E74
:1004A300019360BCA3FF543F30E509541FFEE4935E
:1004B300A360010ECF54C025E060A840B8E493A325
:1004C300FAE493A3F8E493A3C8C582C8CAC583CA50
:1004D300F0A3C8C582C8CAC583CADFE9DEE780BE08
:010584000076
:00000001FF
